{
  "_format": "hh-sol-artifact-1",
  "contractName": "YourNotes",
  "sourceName": "contracts/YourNotes.sol",
  "abi": [
    {
      "inputs": [
        {
          "internalType": "string",
          "name": "_note",
          "type": "string"
        }
      ],
      "name": "addNote",
      "outputs": [
        {
          "internalType": "bool",
          "name": "",
          "type": "bool"
        }
      ],
      "stateMutability": "nonpayable",
      "type": "function"
    },
    {
      "inputs": [
        {
          "internalType": "uint256",
          "name": "_id",
          "type": "uint256"
        }
      ],
      "name": "deleteNote",
      "outputs": [
        {
          "internalType": "bool",
          "name": "",
          "type": "bool"
        }
      ],
      "stateMutability": "nonpayable",
      "type": "function"
    },
    {
      "inputs": [],
      "name": "getNotes",
      "outputs": [
        {
          "components": [
            {
              "internalType": "uint256",
              "name": "id",
              "type": "uint256"
            },
            {
              "internalType": "string",
              "name": "note",
              "type": "string"
            },
            {
              "internalType": "bool",
              "name": "isDeleted",
              "type": "bool"
            }
          ],
          "internalType": "struct YourNotes.Note[]",
          "name": "",
          "type": "tuple[]"
        }
      ],
      "stateMutability": "view",
      "type": "function"
    }
  ],
  "bytecode": "0x608060405234801561001057600080fd5b50610a9e806100206000396000f3fe608060405234801561001057600080fd5b50600436106100415760003560e01c8063a4edff4714610046578063b4af200d14610076578063c47177f414610094575b600080fd5b610060600480360381019061005b9190610594565b6100c4565b60405161006d9190610782565b60405180910390f35b61007e6101ef565b60405161008b9190610760565b60405180910390f35b6100ae60048036038101906100a991906105d5565b610341565b6040516100bb9190610782565b60405180910390f35b6000806000803373ffffffffffffffffffffffffffffffffffffffff1673ffffffffffffffffffffffffffffffffffffffff1681526020019081526020016000208054905090506000803373ffffffffffffffffffffffffffffffffffffffff1673ffffffffffffffffffffffffffffffffffffffff16815260200190815260200160002060405180606001604052806001846101619190610879565b81526020018581526020016000151581525090806001815401808255809150506001900390600052602060002090600302016000909190919091506000820151816000015560208201518160010190805190602001906101c2929190610474565b5060408201518160020160006101000a81548160ff02191690831515021790555050506001915050919050565b60606000803373ffffffffffffffffffffffffffffffffffffffff1673ffffffffffffffffffffffffffffffffffffffff168152602001908152602001600020805480602002602001604051908101604052809291908181526020016000905b8282101561033857838290600052602060002090600302016040518060600160405290816000820154815260200160018201805461028c90610927565b80601f01602080910402602001604051908101604052809291908181526020018280546102b890610927565b80156103055780601f106102da57610100808354040283529160200191610305565b820191906000526020600020905b8154815290600101906020018083116102e857829003601f168201915b505050505081526020016002820160009054906101000a900460ff1615151515815250508152602001906001019061024f565b50505050905090565b6000806000803373ffffffffffffffffffffffffffffffffffffffff1673ffffffffffffffffffffffffffffffffffffffff1681526020019081526020016000208054905090508083106103ca576040517f08c379a00000000000000000000000000000000000000000000000000000000081526004016103c19061079d565b60405180910390fd5b60016000803373ffffffffffffffffffffffffffffffffffffffff1673ffffffffffffffffffffffffffffffffffffffff1681526020019081526020016000208481548110610442577f4e487b7100000000000000000000000000000000000000000000000000000000600052603260045260246000fd5b906000526020600020906003020160020160006101000a81548160ff0219169083151502179055506001915050919050565b82805461048090610927565b90600052602060002090601f0160209004810192826104a257600085556104e9565b82601f106104bb57805160ff19168380011785556104e9565b828001600101855582156104e9579182015b828111156104e85782518255916020019190600101906104cd565b5b5090506104f691906104fa565b5090565b5b808211156105135760008160009055506001016104fb565b5090565b600061052a610525846107e2565b6107bd565b90508281526020810184848401111561054257600080fd5b61054d8482856108e5565b509392505050565b600082601f83011261056657600080fd5b8135610576848260208601610517565b91505092915050565b60008135905061058e81610a51565b92915050565b6000602082840312156105a657600080fd5b600082013567ffffffffffffffff8111156105c057600080fd5b6105cc84828501610555565b91505092915050565b6000602082840312156105e757600080fd5b60006105f58482850161057f565b91505092915050565b600061060a8383610701565b905092915050565b600061061d82610823565b6106278185610846565b93508360208202850161063985610813565b8060005b85811015610675578484038952815161065685826105fe565b945061066183610839565b925060208a0199505060018101905061063d565b50829750879550505050505092915050565b610690816108cf565b82525050565b61069f816108cf565b82525050565b60006106b08261082e565b6106ba8185610857565b93506106ca8185602086016108f4565b6106d381610a17565b840191505092915050565b60006106eb600a83610868565b91506106f682610a28565b602082019050919050565b60006060830160008301516107196000860182610751565b506020830151848203602086015261073182826106a5565b91505060408301516107466040860182610687565b508091505092915050565b61075a816108db565b82525050565b6000602082019050818103600083015261077a8184610612565b905092915050565b60006020820190506107976000830184610696565b92915050565b600060208201905081810360008301526107b6816106de565b9050919050565b60006107c76107d8565b90506107d38282610959565b919050565b6000604051905090565b600067ffffffffffffffff8211156107fd576107fc6109e8565b5b61080682610a17565b9050602081019050919050565b6000819050602082019050919050565b600081519050919050565b600081519050919050565b6000602082019050919050565b600082825260208201905092915050565b600082825260208201905092915050565b600082825260208201905092915050565b6000610884826108db565b915061088f836108db565b9250827fffffffffffffffffffffffffffffffffffffffffffffffffffffffffffffffff038211156108c4576108c361098a565b5b828201905092915050565b60008115159050919050565b6000819050919050565b82818337600083830152505050565b60005b838110156109125780820151818401526020810190506108f7565b83811115610921576000848401525b50505050565b6000600282049050600182168061093f57607f821691505b60208210811415610953576109526109b9565b5b50919050565b61096282610a17565b810181811067ffffffffffffffff82111715610981576109806109e8565b5b80604052505050565b7f4e487b7100000000000000000000000000000000000000000000000000000000600052601160045260246000fd5b7f4e487b7100000000000000000000000000000000000000000000000000000000600052602260045260246000fd5b7f4e487b7100000000000000000000000000000000000000000000000000000000600052604160045260246000fd5b6000601f19601f8301169050919050565b7f496e76616c696420496400000000000000000000000000000000000000000000600082015250565b610a5a816108db565b8114610a6557600080fd5b5056fea264697066735822122075532b9c1742c896ed39584addc99d9baf9fe4e812971b0a882c26c6d99dd46a64736f6c63430008040033",
  "linkReferences": {},
  "deployedLinkReferences": {}
}